S00E00004C61625F30352E7372656343
S11300000C9434000C9451000C9451000C94510045
S11300100C9451000C9451000C9451000C94510018
S11300200C9451000C9451000C9451000C94510008
S11300300C9451000C9451000C9420010C94510028
S11300400C94EB000C9451000C9451000C9451004E
S11300500C9451000C94B0000C9451000C94510079
S11300600C9451000C94510011241FBECFEFD8E022
S1130070DEBFCDBF11E0A0E0B1E0EAE6F3E002C0EC
S113008005900D92A430B107D9F721E0A4E0B1E0C6
S113009001C01D92A730B207E1F70E9468000C94DA
S11300A0B3010C940000E1E6F0E080E8808381E095
S11300B0808386E680937C00EAE7F0E080818868AC
S11300C080838081866080838081806480830895BA
S11300D00E9453000E942F010E9454010E9471014A
S11300E078942091040130E0A4EAB6E00E94A401CF
S11300F0C12CD12C7601CA94A70196010E948201D9
S1130100C90186579D4F90930201809301010E947B
S11301104F018091050190E0A0E0B0E0AC01BD0189
S1130120440F551F661F771F8A019B01080F191F73
S11301302A1F3B1FC901B801660F771F881F991F2B
S1130140660F771F881F991FA70196010E948201DD
S113015086E0820F8093000190E00E946E01C1CF7F
S11301601F920F920FB60F9211248F93EF93FF9368
S113017080917C008F70863041F480917900809367
S1130180040185E680937C0019C080917C008F7007
S1130190853041F4809179008093050184E6809351
S11301A07C000CC080917C008F70843039F4809185
S11301B079008093060186E680937C00EAE7F0E00C
S11301C0808180648083FF91EF918F910F900FBEA7
S11301D00F901F9018951F920F920FB60F92112433
S11301E08F93EF93FF9380910601863048F485B195
S11301F08F7D85B9EEE6F0E080818D7F808318C025
S1130200809106018A3F48F085B1806285B9EEE6A7
S1130210F0E080818D7F80830BC085B1806285B9D9
S11302208091060187BDEEE6F0E0808182608083E4
S1130230FF91EF918F910F900FBE0F901F90189523
S11302401F920F920FB60F9211248F9385B18F7D59
S113025085B98F910F900FBE0F901F90189584B1A0
S1130260826084B9E0E8F0E08081806880838081E6
S113027082608083E1E8F0E080818861808380810E
S1130280826080838FE19EE4909387008093860050
S11302908CED95E090938900809388000895909365
S11302A089008093880008958AB188608AB9A0EB98
S11302B0B0E08C9183608C93E1EBF0E08081886006
S11302C080838C9180628C938081876080838BE9AA
S11302D08093B3008CE08093B40008958093B400BD
S11302E0089584B1806284B914BC15BC85B582605C
S11302F085BDEEE6F0E080818160808385B18F7DED
S113030085B90895A1E21A2EAA1BBB1BFD010DC0DD
S1130310AA1FBB1FEE1FFF1FA217B307E407F507B1
S113032020F0A21BB30BE40BF50B661F771F881F8D
S1130330991F1A9469F760957095809590959B0123
S1130340AC01BD01CF010895A29FB001B39FC001CC
S1130350A39F700D811D1124911DB29F700D811DED
S10D03601124911D0895F894FFCFB5
S107036A0C8A0200F3
S9030000FC
