:100000000C9434000C943E000C943E000C943E0082
:100010000C943E000C943E000C943E000C943E0068
:100020000C943E000C943E000C943E000C943E0058
:100030000C943E000C943E000C943E000C943E0048
:100040000C943E000C943E000C943E000C943E0038
:100050000C943E000C943E000C943E000C943E0028
:100060000C943E000C943E0011241FBECFEFD8E04C
:10007000DEBFCDBF0E9469000C9474000C94000098
:1000800084B18F6384B985B18F7385B984B183607E
:1000900084B985B1837085B908959093C500809324
:1000A000C40088E18093C10086E08093C200089577
:1000B0008091C0008823E4F78091C600089585B937
:1000C00098B19C7F8295869586958370892B88B997
:1000D00008950E94400087E690E00E944D000E9433
:0C00E00058000E945F00FBCFF894FFCF97
:00000001FF
