S00E00004C61625F30362E7372656342
S11300000C9434000C9449000C9449000C9449005D
S11300100C9449000C9449000C9449000C94490038
S11300200C9449000C9449000C9449000C94490028
S11300300C9449000C9449000C9449000C94490018
S11300400C9449000C9449000C9449000C94490008
S11300500C9449000C9449000C9449000C944900F8
S11300600C9449000C94490011241FBECFEFD8E032
S1130070DEBFCDBF11E0A0E0B1E0EEECF1E002C0E4
S113008005900D92AA38B107D9F70E94AC000C94E0
S1130090E5000C94000084B18F6384B985B18F733B
S11300A085B987B1836087B988B1837088B90895A9
S11300B09093C5008093C40088E18093C10086E0DA
S11300C08093C200089580E480937C0087E8809345
S11300D07A000895ECE7F0E09081907F8F70892B8F
S11300E08083808180628083EAE7F0E0808180649D
S11300F0808380917A0086FDFCCF8091790090E026
S113010008959091C00095FFFCCF8093C600089598
S11301100F931F93CF938C01C0E003C00E94810012
S1130120CF5FF801EC0FF11D80818111F7CFCF91E2
S11301301F910F9108958091C0008823E4F7809166
S1130140C600089585B998B19C7F82958695869559
S11301508370892B88B908950E944B0087E690E04C
S11301600E9458000E94630080E091E00E94880091
S113017088E191E00E9488008EE291E00E9488006C
S11301800E949B00C82F0E948100C13369F488E457
S113019091E00E9488000E949B00C82F0E94810069
S11301A08C2F0E94A200E0CFC23351F487E00E945A
S11301B06A000E94A2008CE591E00E948800D4CFDE
S11101C089E691E00E948800CFCFF894FFCF2B
S11301CE0A20C2BF5175C3A9206465736561206896
S11301DE616365723F200A0031202D20456E7669D9
S11301EE6172206361726163746572200A00322049
S11301FE2D204C65657220706F74656E6369C3B390
S113020E6D6574726F200A000A20496E67726573F9
S113021E652063617261637465723A000A56616C9B
S113022E6F72204144433A200053656C65636369E1
S113023E6F6E6520756E61206F706369C3B36E2037
S10D024E696E76C3A16C6964610057
S9030000FC
