:020000020000FC
:0200000020C01E
:02000C00B5C17C
:0200240086C391
:02003400B5C352
:10004000CAC3F8940FEF0DBF08E00EBF00E800939D
:10005000610004E00093610000917A000F77009343
:100060007A0000E00093C10005E005BD0CE006BD8C
:1000700001E000936E0000E00093800005E0009333
:1000800081000BE1009385000EE10093840001E004
:1000900000936F0000E00093B00006E00093B10011
:1000A0000AEF0093B20001E00093700001E00093BA
:1000B00068000FE100936B0000E204B90FE307B999
:1000C0000FEF0AB90FE105B90CE308B900E00BB96D
:1000D000F8E0E8E10FE100930001049100930301CF
:1000E000009304010093050100930601002700938B
:1000F000170100931801009301010093020100937E
:1001000007010093080100930B0100930C01009379
:100110000D0100930E01009310010093120101E004
:1001200000930F01009311010093090100930A014C
:1001300000E000931301009314010093160107E0FF
:10014000009315010027112722273327442755271D
:1001500066277727882704910BB9789400911801B6
:100160000F3F09F423C0F8E0E8E100910B01E00F34
:10017000149110930601F8E0E8E100910C01E00F02
:10018000149110930501F8E0E8E100910D01E00FF2
:10019000149110930401F8E0E8E100910E01E00FE2
:1001A000149110930301409A419823C0F8E0E8E1CC
:1001B00000910F01E00F149110930401F8E0E8E1C1
:1001C00000911001E00F149110930301F8E0E8E1B1
:1001D00000911101E00F149110930601F8E0E8E19D
:1001E00000911201E00F149110930501419A40987B
:1001F00000C010910B011A30C0F520910C0126307F
:1002000008F03EC030910D013A3008F04BC010911B
:100210000801183108F04FC050910F015A3008F012
:1002200069C060911001643019F466276093100171
:100230001091090120910A01223019F41D3108F0B2
:1002400072C0103208F06FC01F3108F061C01D315C
:1002500008F059C0709111017A3008F07BC02091EC
:100260000A012D3008F07FC079CF112710930B01C0
:1002700020910C012395263018F420930C016ECFA9
:10028000222720930C01109108011395183198F43E
:100290001093080130910D0133953A3018F43093E2
:1002A0000D015CCF332730930D0140910E01439532
:1002B00040930E0153CF00270093080100930D01D6
:1002C00000930E01109109011395103260F51F3152
:1002D000F8F41D31C0F410930901009117010F3F8C
:1002E00009F43CCF50910F0153955A3018F45093B4
:1002F0000F0134CF552750930F0160911001639582
:10030000609310012BCF00910A01023021F70BC03E
:1003100000910A01043039F0063029F0093019F053
:100320000B3009F0D8CF11E01093090110930F01A1
:1003300011271093100120910A0123952D3098F474
:1003400020930A017091110173957A3018F470931B
:10035000110104CF772770931101809112018395C9
:1003600080931201FBCE41E040930A0140931101BA
:10037000442740931201F2CE0F930FB70F931F93B0
:100380002F933F934F935F936F9313B11F73199BF9
:1003900017C01A9B86C01B9BA5C11C9BAFC1212FF8
:1003A0002170203049F021E03327009100010170D5
:1003B000021330931701B1C10FEF00931701ADC1C4
:1003C00000911701003009F4A8C100911801003014
:1003D00011F00F3F69F110910201103031F011302E
:1003E00051F0123071F01330B8F430910B013395A5
:1003F00030930B0192C130910C01339530930C0175
:100400008CC130910D01339530930D01409108015D
:1004100043954093080181C130910E01339530938B
:100420000E01409108015AE0450F4093080175C143
:1004300010910201103031F0113079F01230C9F012
:10044000133010F530910F01339530930F01409127
:10045000090143954093090160C130911001339522
:1004600030931001409109015AE0450F4093090172
:1004700054C13091110133953093110140910A011B
:10048000439540930A0149C130911201339530934D
:10049000120140910A015AE0450F40930A013DC103
:1004A0003CC100911701003009F437C100911801D7
:1004B000003009F069C010910201103029F01130AC
:1004C00079F01230C9F047C030910B01303021F47F
:1004D00039E030930B0121C13A9530930B011DC1D6
:1004E00030910C01303021F435E030930C0115C10E
:1004F0003A9530930C0111C140910801403009F147
:1005000030910E01303021F020910D01203059F052
:1005100020910D012A9520930D01409108014A95E3
:1005200040930801FAC0409108014A9540930801A0
:1005300030910E013A9530930E0129E020930D0180
:10054000ECC047E14093080132E030930E0133E004
:1005500030930D01E2C0409108014A3058F03091CB
:100560000E013A9530930E01409108014A50409394
:100570000801D3C047E14093080132E030930E01F7
:1005800033E030930D01C9C010910201103039F0F1
:10059000113009F455C0123009F467C08EC0409183
:1005A0000901413009F120911001203021F03091F2
:1005B0000F01303059F0409109014A9540930901EB
:1005C00030910F013A9530930F01A7C04091090176
:1005D0004A9540930901209110012A95209310011A
:1005E00039E030930F0199C000910A01023051F4B3
:1005F0002CE12093090138E030930F0142E0409351
:1006000010018BC000910A01043081F0063071F0B6
:10061000093061F00B3051F02FE12093090131E0F6
:1006200030930F0143E04093100177C02EE12093F7
:10063000090130E030930F0143E0409310016DC099
:10064000209110015AE0259F30910F01030E202DBB
:10065000209309012B3040F22A5020930901309158
:1006600010013A953093100158C0209112015AE0C0
:10067000259F30911101030E202D20930A01213076
:1006800091F02A9520930A01309111013A953F3F4C
:1006900019F03093110141C039E030931101442722
:1006A000409312013AC02CE020930A0132E03093CB
:1006B000110141E04093120130C0209112015AE033
:1006C000259F30911101030E202D20930A012B301C
:1006D00050F32A5020930A01309112013A95309339
:1006E00012011BC030911801303021F43FEF3093DC
:1006F000180113C030E0309318010FC0509117015A
:10070000503059F0609102016395609302016430AA
:1007100021F466276093020100C0109300016F91DD
:100720005F914F913F912F911F910F910FBF0F91AB
:1007300018950F930FB70F931F932F933F930AEFC3
:100740000093B20018B1137018B920910101203044
:1007500031F0213051F0223071F0233091F02395A7
:10076000109106011BB9449A12C0239510910501FE
:100770001BB9459A0CC02395109104011BB9439AEB
:1007800006C02227109103011BB9429A00C0209392
:1007900001013F912F911F910F910FBF0F9118955C
:1007A0000F930FB70F931F932F930BE100938500C7
:1007B0000EE100938400009117010F3F31F010917A
:1007C0000B01139510930B0100C02F911F910F91F6
:1007D0000FBF0F9118950F930FB70F931F932F9380
:1007E0003F934F930CE006BD009117010F3F61F05E
:1007F00010910701139510930701123029F4112766
:10080000109307011D9A00C04F913F912F911F91A6
:100810000F910FBF0F91189577426D6B5A3B3F6256
:020820007F7ADD
:00000001FF
