:020000020000FC
:0200000020C01E
:02000C00E2C050
:020024000BC10E
:020034003AC1CF
:100040007DC1F8940FEF0DBF08E00EBF00E80093EC
:10005000610004E00093610000917A000F77009343
:100060007A0000E00093C10005E005BD0CE006BD8C
:1000700001E000936E0000E00093800005E0009333
:1000800081000BE1009385000EE10093840001E004
:1000900000936F0000E00093B00006E00093B10011
:1000A0000AEF0093B20001E00093700001E00093BA
:1000B00068000FE100936B0000E204B90FE307B999
:1000C0000FEF0AB90FE105B90CE308B900E00BB96D
:1000D000F3E0EEE70FE100930001049100930301C8
:1000E000009304010093050100930601002700938B
:1000F000100100931101009301010093020100938C
:100100000701009308010093090100930A0100937D
:100110000B0100930D0100930F0101E000930C010E
:1001200000930E0100271127222733274427552744
:1001300066277727882704910BB9789400911101DD
:100140000F3F09F423C0F3E0EEE700910801E00F50
:10015000149110930601F3E0EEE700910901E00F1E
:10016000149110930501F3E0EEE700910A01E00F0E
:10017000149110930401F3E0EEE700910B01E00FFE
:10018000149110930301409A4198D8CFF3E0EEE721
:1001900000910C01E00F149110930401F3E0EEE7DD
:1001A00000910D01E00F149110930301F3E0EEE7CD
:1001B00000910E01E00F149110930601F3E0EEE7B9
:1001C00000910F01E00F149110930501419A40989E
:1001D000B5CF0F930FB70F931F932F933F9313B187
:1001E0001F73199B16C01B9B14C0212F2170203038
:1001F00049F021E033270091000101700213309390
:10020000100113C00FEF00931001002700930201AB
:100210000CC030911101303021F43FEF30931101C7
:1002200004C030E03093110100C0109300013F91F1
:100230002F911F910F910FBF0F9118950F930FB72B
:100240000F931F932F933F930AEF0093B20018B1BF
:10025000137018B920910101203031F0213051F094
:10026000223071F0233091F02395109106011BB9D3
:10027000449A12C02395109105011BB9459A0CC0F0
:100280002395109104011BB9439A06C022271091AF
:1002900003011BB9429A00C0209301013F912F91A5
:1002A0001F910F910FBF0F9118950F930FB70F93D9
:1002B0001F932F933F934F935F936F937F938F93EE
:1002C0000BE1009385000EE1009384000091100182
:1002D0000F3F41F11091080113951A3019F0109356
:1002E000080120C010E01093080120910901239516
:1002F000263019F02093090115C020E02093090150
:1003000030910A0133953A3019F030930A010AC04E
:1003100030E030930A0140910B0143954230409305
:100320000B0100C08F917F916F915F914F913F9131
:100330002F911F910F910FBF0F9118950F930FB72A
:100340000F931F932F933F934F930CE006BD0091A3
:1003500010010F3F61F010910701139510930701F1
:10036000123029F41127109307011D9A00C04F91F4
:100370003F912F911F910F910FBF0F9118957742C9
:080380006D6B5A3B3F627F7A6E
:00000001FF
