:020000020000FC
:0200000020C01E
:02000C00C4C06E
:02002400EAC030
:0200340019C1F0
:1000400043C1F8940FEF0DBF08E00EBF00E8009326
:10005000610004E00093610000917A000F77009343
:100060007A0000E00093C10005E005BD0CE006BD8C
:1000700001E000936E0000E00093800005E0009333
:1000800081000BE1009385000EE10093840001E004
:1000900000936F0000E00093B00006E00093B10011
:1000A0000AEF0093B20001E00093700001E00093BA
:1000B00068000FE100936B0000E204B90FE307B999
:1000C0000FEF0AB90FE105B90CE308B900E00BB96D
:1000D000F3E0E2E00FE100930001049100930201DC
:1000E000009303010093040100930501002700938E
:1000F0000F0100931001009301010093060100938A
:100100000701009308010093090100930A0100937D
:100110000B0100930C0100930D0100930E010027C9
:100120001127222733274427552766277727882733
:10013000789400910F010F3F21F400C0409A419A3A
:1001400003C04098419800C0009110010F3F09F48E
:1001500011C000910701009305010091080100936F
:100160000401009109010093030100910A01009329
:100170000201DFCF00910B010093050100910C01FA
:100180000093040100910D010093030100910E0101
:1001900000930201CECF0F930FB70F931F932F93AE
:1001A0003F9313B11F73199B13C01B9B11C0212FC9
:1001B0002170203049F021E03327009100010170C7
:1001C000021330930F0110C00FEF00930F010CC00A
:1001D00030911001003021F43FEF3093100104C042
:1001E00030E03093100100C0109300013F912F9137
:1001F0001F910F910FBF0F9118950F930FB70F938A
:100200001F932F933F930AEF0093B20018B113701E
:1002100018B920910101203031F0213051F0223005
:1002200071F0233091F02395109105011BB9449A88
:1002300012C02395109104011BB9459A0CC0239557
:10024000109103011BB9439A06C0222710910201A5
:100250001BB9429A00C0209301013F912F911F9139
:100260000F910FBF0F9118950F930FB70F931F9317
:100270002F933F934F935F936F937F938F930BE1F4
:10028000009385000EE100938400109107011395FF
:100290001A3019F0109307010BC010E010930701FA
:1002A0002091080123952C3319F02093080100C0F8
:1002B0008F917F916F915F914F913F912F911F91FE
:1002C0000F910FBF0F9118950F930FB70F931F93B7
:1002D0002F933F934F930CE006BD109106011395A9
:1002E00010930601123029F41127109306011D9A6C
:1002F00000C04F913F912F911F910F910FBF0F9110
:0C030000189577426D6B5A3B3F627F7A84
:00000001FF
