:020000020000FC
:0200000020C01E
:02000C00CFC162
:0200240002C414
:0200340045C4C1
:1000400070C4F8940FEF0DBF08E00EBF00E80093F6
:10005000610004E00093610000917A000F77009343
:100060007A0000E00093C10005E005BD0CE006BD8C
:1000700001E000936E0000E00093800005E0009333
:1000800081000BE1009385000EE10093840001E004
:1000900000936F0000E00093B00006E00093B10011
:1000A0000EEF0093B20001E00093700001E00093B6
:1000B00068000FE100936B0000E204B90FE307B999
:1000C0000FEF0AB90FE105B90CE308B900E00BB96D
:1000D000F9E0E4E60FE100930001049100930301CD
:1000E000009304010093050100930601002700938B
:1000F0001E0100931F010093010100930201009370
:1001000007010093080100930B0100930C01009379
:100110000D0100930E01009310010093120101E004
:1001200000930F01009311010093090100930A014C
:1001300000E0009313010093140100931601009353
:1001400018010093190100931A0100931B010093F9
:100150001C0107E0009315010093170100E00093D4
:100160001D010027112722273327442755276627FB
:1001700077278827CC27DD27EE27552704910BB951
:10018000789400911F010F3F09F42AC0F9E0E4E6DA
:1001900000910B01E00F149110930601F9E0E4E6E1
:1001A00000910C01E00F149110930501F9E0E4E6D1
:1001B00000910D01E00F149110930401F9E0E4E6C1
:1001C00000910E01E00F14911093030100911F01A3
:1001D000053519F0409A419826C0409A419A23C0AB
:1001E000F9E0E4E600910F01E00F1491109304018F
:1001F000F9E0E4E600911001E00F1491109303017F
:10020000F9E0E4E600911101E00F1491109306016A
:10021000F9E0E4E600911201E00F1491109305015A
:10022000419A409800C010910B011A30C0F52091FE
:100230000C01263008F03EC030910D013A3008F034
:100240004BC010910801183108F04FC050910F01B8
:100250005A3008F069C060911001643019F46627C3
:10026000609310011091090120910A01223019F4C4
:100270001D3108F072C0103208F06FC01F3108F055
:1002800061C01D3108F059C0709111017A3008F039
:100290007BC020910A012D3008F07FC072CF11275A
:1002A00010930B0120910C012395263018F4209314
:1002B0000C0167CF222720930C01109108011395A0
:1002C000183198F41093080130910D0133953A30AC
:1002D00018F430930D0155CF332730930D01409121
:1002E0000E01439540930E014CCF00270093080167
:1002F00000930D0100930E01109109011395103226
:1003000060F51F31F8F41D31C0F41093090100911C
:100310001E010F3F09F435CF50910F0153955A300C
:1003200018F450930F012DCF552750930F01609172
:10033000100163956093100124CF00910A010230EF
:1003400021F70BC000910A01043039F0063029F082
:10035000093019F00B3009F0D8CF11E010930901E2
:1003600010930F0111271093100120910A0123957A
:100370002D3098F420930A017091110173957A3011
:1003800018F470931101FDCE7727709311018091BD
:100390001201839580931201F4CE41E040930A014B
:1003A00040931101442740931201EBCE0F930FB7F6
:1003B0000F931F932F933F934F935F936F9313B1BB
:1003C0001F73199B1EC01A9B8CC01B9BC2C11C9B18
:1003D0000CC2212F2170203081F0009100010170AA
:1003E000003009F016C2332730931E0120911F01FF
:1003F000253511F430931F010CC20FEF00931E013D
:1004000008C200911E01003009F403C200911F01CF
:100410000F3F71F100C010910201103031F0113026
:1004200051F0123071F01330B8F430910B01339564
:1004300030930B01EEC130910C01339530930C01D8
:10044000E8C130910D01339530930D0140910801C1
:10045000439540930801DDC130910E0133953093EF
:100460000E01409108015AE0450F40930801D1C1A7
:1004700010910201103031F0113079F01230C9F0D2
:10048000133010F530910F01339530930F014091E7
:100490000901439540930901BCC130911001339586
:1004A00030931001409109015AE0450F4093090132
:1004B000B0C13091110133953093110140910A017F
:1004C000439540930A01A5C13091120133953093B1
:1004D000120140910A015AE0450F40930A0199C167
:1004E00098C100911E01003009F493C100911F01D1
:1004F000053519F00030B1F07EC010910B0110935A
:10050000130110910C011093140110910D0110931F
:10051000150110910E01109316011091080110930E
:10052000170177C110910201103029F0113079F0D4
:100530001230C9F047C030910B01303021F439E05E
:1005400030930B0166C13A9530930B0162C1309133
:100550000C01303021F435E030930C015AC13A954A
:1005600030930C0156C140910801403009F130919F
:100570000E01303021F020910D01203059F02091F2
:100580000D012A9520930D01409108014A95409351
:1005900008013FC1409108014A95409308013091FC
:1005A0000E013A9530930E0129E020930D0131C1DF
:1005B00047E14093080132E030930E0133E030937D
:1005C0000D0127C1409108014A3058F030910E01C9
:1005D0003A9530930E01409108014A50409308012A
:1005E00018C147E14093080132E030930E0133E037
:1005F00030930D010EC110910201103039F011300D
:1006000009F455C0123009F467C08EC04091090149
:10061000413009F120911001203021F030910F017B
:10062000303059F0409109014A95409309013091C9
:100630000F013A9530930F01ECC0409109014A95A2
:1006400040930901209110012A952093100139E06F
:1006500030930F01DEC000910A01023051F42CE109
:100660002093090138E030930F0142E040931001DC
:10067000D0C000910A01043081F0063071F00930D9
:1006800061F00B3051F02FE12093090131E03093FC
:100690000F0143E040931001BCC02EE120930901FB
:1006A00030E030930F0143E040931001B2C020913D
:1006B00010015AE0259F30910F01030E202D209349
:1006C00009012B3040F22A5020930901309110018A
:1006D0003A95309310019DC0209112015AE0259F58
:1006E00030911101030E202D20930A01213091F049
:1006F0002A9520930A01309111013A953F3F19F054
:100700003093110186C039E03093110144274093A2
:1007100012017FC02CE020930A0132E030931101D6
:1007200041E04093120175C0209112015AE0259FCB
:1007300030911101030E202D20930A012B3050F32C
:100740002A5020930A01309112013A9530931201F8
:1007500060C010911E011F3F91F030911F01303099
:1007600051F03F3F21F030E030931F0152C030E0A4
:1007700030931F014EC03FEF30931F014AC03091AC
:100780001F013F3FD1F03030B1F330E030931F0113
:100790001091180110930B011091190110930C0185
:1007A00010911A0110930D0110911B0110930E016D
:1007B00010911C01109308012CC035E530931F01E6
:1007C00010910B011093180110910C011093190155
:1007D00010910D0110931A0110910E0110931B013D
:1007E0001091080110931C0114C050911E0150304B
:1007F00059F060910201639560930201643049F4FD
:1008000066276093020105C000E000931D015F9818
:1008100000C0109300016F915F914F913F912F9114
:100820001F910F910FBF0F9118950F930FB70F9353
:100830001F932F933F930EEF0093B20018B11370E4
:1008400018B900911D010F3F21F41BB100E81027DA
:100850001BB920910101203031F0213069F02230A4
:10086000A1F02330D9F02395109106013BB13078E7
:10087000132B1BB9449A1BC02395109105013BB162
:100880003078132B1BB9459A12C02395109104019F
:100890003BB13078132B1BB9439A09C02227109122
:1008A00003013BB13078132B1BB9429A00C020934F
:1008B00001013F912F911F910F910FBF0F9118953B
:1008C0000F930FB70F931F932F930BE100938500A6
:1008D0000EE10093840000911E010F3FE1F01091A2
:1008E0000B01139510930B0110910B012091130133
:1008F000121789F410910C0120911401121759F468
:100900001091080120911701121729F42FEF20935D
:100910001D015F9A00C02F911F910F910FBF0F9182
:1009200018950F930FB70F931F932F933F934F93E8
:100930000CE006BD00911E010F3F61F01091070110
:10094000139510930701123029F411271093070112
:100950001D9A00C04F913F912F911F910F910FBF92
:0E0960000F91189577426D6B5A3B3F627F7A7C
:00000001FF
