:020000020000FC
:1000000000C00FEF0DBF08E00EBFFBA037B6AC9EDF
:100010009FB0BFBCBD8F1BA71F1D00E800936100F0
:1000200003E00093610005E005BD0DE306BD00910E
:100030007A000F7700937A0000E00093C1000FE18F
:1000400007B90FEF0AB900E004B900E008B900E011
:100050000BB908E105B9F0E0EAE0112410E020E076
:1000600030E040E050E060E070E080E004910BB9E7
:10007000F0E0EAE053B15071503011F153B15870D3
:10008000503051F130E040E005B300FFF1CFA89AC5
:100090000DE306BD83958A3059F70AD0012F0F7002
:1000A0000213E6CF10E070957111106118B9E0CF1E
:1000B00013951F707111106118B9112488270895C4
:1000C00053B150715030A1F633953A3FC9F72F30F4
:1000D00081F0239510D0CCCF53B15870503041F6F9
:1000E00043954A3FC9F7203011F02A9504C02FE00C
:1000F00002C020E000C053B158715831E1F7E20F5F
:0601000004910BB9B5CF1C
:00000001FF
