:020000020000FC
:1000000000C00FEF0DBF08E00EBFFFA03776AC9E1B
:100010009FB0BFBCBD8F00E80093610003E0009378
:10002000610005E005BD0DE306BD00917A000F7784
:1000300000937A0000E00093C1000FE007B90FEFD2
:100040000AB900E004B900E008B900E00BB908E122
:1000500005B9F0E0EAE010E020E030E040E050E0F8
:1000600055915BB905B300FFFBCFA89A0DE306BD20
:1000700005D043B14871483099F704C013951F70FB
:1000800018B9089543B14871483051F733953A3F54
:1000900009F0E6CF43B148714830E1F3239555911B
:0E00A0005BB92F702030E1F6F0E0EAE0D9CF36
:00000001FF
