:020000020000FC
:1000000000C00FEF0DBF08E00EBFFBA037B6AC9EDF
:100010009FB0BFBCBD8F1BA71F1D00E800936100F0
:1000200003E00093610005E005BD0DE306BD00910E
:100030007A000F7700937A0000E00093C1000FE18F
:1000400007B90FEF0AB900E004B900E008B900E011
:100050000BB908E105B9F0E0EAE010E020E030E09B
:1000600040E050E060E070E08FE104910BB9F0E017
:10007000EAE030E040E005B300FFF9CFA89A0DE3D5
:1000800006BD09D053B15071503061F053B1587072
:100090005030A9F0ECCF13951F707111106118B991
:1000A0001124089553B15071503009F733953A3FF8
:1000B000C9F77FEF2F3089F0239511D0D8CF53B1F6
:1000C00058705030A1F643954A3FC9F770E0203090
:1000D00011F02A9504C02FE002C020E000C053B107
:0E00E00058715831E1F7E20F04910BB9C0CF0F
:00000001FF
