:020000020000FC
:0200000008C036
:1000100031C0F8940FEF0DBF08E00EBF00917A00D9
:100020000F7700937A0000E00093C10006E004B966
:100030000FE007B90FEF0AB906E005B900E308B908
:1000400000E00BB9F0E0ECED02E00093680000E3A3
:1000500000936C00002710E020E090E0A0E000E3B7
:100060000093000100E00093010104910BB9789422
:100070000C9438000F930FB70F931F932F939F93F8
:10008000AF9316B11073009100010071003069F058
:10009000912F9071903099F0009100010072003022
:1000A00021F0A12FA072A03071F010930001AF9148
:1000B0009F912F911F910F910FBF0F911895209134
:1000C0000101239504C0209101012A9500C02F70E1
:1000D00020930101022F006308B9E7CFE781D6D34F
:0C00E000B17377C1F7F1F53766977674BD
:00000001FF
