:020000020000FC
:0200000020C01E
:0200100073C0BB
:02002400D4C046
:100040008FC0F8940FEF0DBF08E00EBF00E80093DB
:10005000610003E00093610004E005BD04E606BD15
:1000600001E000936E0000E00093B00007E0009311
:10007000B10000EF0093B20001E000937000009126
:100080007A000F7700937A0000E00093C10006E049
:1000900004B90FE007B90FEF0AB906E005B900E3AC
:1000A00008B900E00BB9F2E0E6E104910093050124
:1000B0000093060102E00093680000E300936C00E7
:1000C000002710E020E030E090E0A0E000E30093A3
:1000D000000100E00093010104910BB900E00093DE
:1000E00001010093030100930401009302010093B6
:1000F000070178940C947A000F930FB70F931F9316
:100100002F939F93AF9316B110730091000100716C
:10011000003069F0912F9071903099F000910001BA
:100120000072003021F0A12FA072A03071F0109366
:100130000001AF919F912F911F910F910FBF0F91D0
:10014000189520910101239504C0209101012A9561
:1001500000C02F7020930101022F006308B9E7CF80
:100160000F930FB70F931F932F933F93109103019A
:1001700030910401009102010395023329F400E05B
:1001800013951A30E9F00FC024E626BD0093020152
:1001900010930301309304013F912F911F910F9110
:1001A0000FBF0F911895F2E0E6E1E10F2491209343
:1001B0000501F2E0E6E1E30F249120930601E4CF8C
:1001C00010E0339526E03213EECF30E0ECCF0F9302
:1001D0000FB70F931F9300EF0093B20000E005B933
:1001E00000910701003049F0109106011BB904E0AD
:1001F00005B900E00093070109C0109105011BB982
:1002000002E005B901E00093070100C01F910F91C2
:100210000FBF0F911895E781D6D3B17377C1F7F16E
:06022000F53766977674C5
:00000001FF
