:100000000C9434000C9446000C9446000C9446006A
:100010000C9463000C9446000C9446000C9446002B
:100020000C9446000C9446000C9446000C94460038
:100030000C9446000C9446000C9446000C94460028
:100040000C9446000C9446000C9446000C94460018
:100050000C9446000C9446000C9446000C94460008
:100060000C9446000C94460011241FBECFEFD8E03C
:10007000DEBFCDBF21E0A0E0B1E001C01D92A33002
:10008000B207E1F70E945C000C9494000C9400000D
:100090008FEF8AB91BB887B18F7C87B988B180632D
:1000A00088B9E8E6F0E0808182608083ECE6F0E0E9
:1000B00080818063808308950E94480078948091B5
:1000C00002018BB9FCCF1F920F920FB60F92112431
:1000D0008F939F9386B185FD0DC090910101911181
:1000E0000BC0909102019F5F9093020191E0909369
:1000F000010102C01092010184FD0DC08091000138
:1001000081110BC08091020181508093020181E036
:100110008093000102C0109200019F918F910F9077
:0C0120000FBE0F901F901895F894FFCFB1
:00000001FF
