:100000000C943C000C944E000C944E000C944E004A
:100010000C94DC000C944E000C944E000C944E009A
:100020000C944E000C940D010C944E000C944E0058
:100030000C944E000C944E000C944E000C944E0008
:100040000C944E000C944E000C944E000C944E00F8
:100050000C944E000C945B010C944E000C944E00DA
:100060000C944E000C944E00E782D5D3B27377C245
:10007000F7F2F6376597757411241FBECFEFD8E0FD
:10008000DEBFCDBF21E0A0E0B1E001C01D92A830ED
:10009000B207E1F70E94C8000C947F010C940000A5
:1000A000E1E6F0E080E8808384E08083E1ECF0E04A
:1000B0008081877E80839FEF9AB91BB88FE087B9D4
:1000C00088B1806388B994B915B8E8E6F0E080811A
:1000D00082608083ECE6F0E0808180638083109210
:1000E000B000E1EBF0E08081846080838CED809350
:1000F000B200E0E7F0E080818160808386E6809353
:100100007C00EAE7F0E080818868808380818360FA
:1001100080838081806480830895682F617070E09F
:10012000FB01EE0FFF1FEE0FFF1FEE0FFF1F982FBB
:100130009270692F70E0660F771F982F9470492F87
:1001400050E0559547958870282F30E035952795D4
:1001500035952795359527958E2F862B842B822BC9
:100160000895CF93DF93D82F8F700E948D00C82FF2
:100170008D2F82958F700E948D0098B1907FC92B32
:10018000C8B995B1907F892B85B9DF91CF9108953A
:100190000E9450007894809107010E94B1009091D4
:1001A000040180910701891720F481E08093000108
:1001B000F2CF10920001EFCF1F920F920FB60F9265
:1001C00011248F939F9386B185FD0DC090910601F8
:1001D00091110BC0909107019F5F9093070191E0EF
:1001E0009093060102C01092060184FD0DC080911B
:1001F000050181110BC08091070181508093070197
:1002000081E08093050102C0109205019F918F91BA
:100210000F900FBE0F901F9018951F920F920FB660
:100220000F9211248F93EF93FF938CED8093B20084
:1002300085B18F7E85B985B18F7D85B91BB88091D9
:100240000101811119C081E080930101E091030156
:10025000F0E0E859FF4FE491EBB980910001813063
:1002600021F48BB188608BB903C08BB1877F8BB9C8
:1002700085B1806185B917C010920101E09102013A
:10028000F0E0E859FF4FE491EBB980910001813033
:1002900021F48BB188608BB903C08BB1877F8BB998
:1002A00085B1806285B9FF91EF918F910F900FBE5C
:1002B0000F901F9018951F920F920FB60F92112456
:1002C0008F93EF93FF938091790080930401809145
:1002D00004018F70809303018091040182958F70D7
:1002E00080930201EAE7F0E0808180648083FF91DF
:1002F000EF918F910F900FBE0F901F901895F8946B
:02030000FFCF2D
:00000001FF
